:10000000E0C000000EC100000CC100000AC10000E9
:1000100008C1000006C1000004C1000002C10000C8
:1000200000C10000FEC00000FCC00000FAC00000DB
:10003000F8C00000F6C00000F4C00000F2C00000EC
:10004000F0C00000EEC00000ECC00000EAC00000FC
:10005000E8C00000E6C00000E4C000000DC40000DD
:10006000E0C0000030C6000064C60000DAC0000036
:10007000D8C00000D6C00000D4C00000D2C000002C
:10008000D0C00000CEC00000CCC00000CAC000003C
:10009000C8C00000C6C00000C4C00000C2C000004C
:1000A000C0C00000BEC00000BCC00000BAC000005C
:1000B000B8C00000B6C00000B4C00000B2C000006C
:1000C000B0C00000AEC00000ACC00000AAC000007C
:1000D000A8C00000A6C00000A4C00000A2C000008C
:1000E000A0C00000010210202008081020401020AD
:1000F00040800201020108040201010204081020EC
:1001000040808040201008040201800402018040E9
:100110002010080402010804020101020408102052
:1001200040800102040810204080050505050705F0
:1001300008080808020202020A0A08080404040463
:10014000010101010101010103030303030303038F
:10015000040707070C0C0C0C0C0C0C0C020202021E
:1001600006060606060606060B0B0B0B0B0B0B0B07
:10017000000020002300260029002C002F00320060
:100180000001000003010601090100002200250012
:1001900028002B002E003100340002010000050170
:1001A00008010B0100002100240027002A002D0077
:1001B0003000330001010000040107010A01680258
:1001C000CB0611241FBECFEFD1E2DEBFCDBF00E0D2
:1001D0000CBF12E0A0E0B2E0E4E8F3E100E00BBF06
:1001E00002C007900D92A832B107D9F723E0A8E228
:1001F000B2E001C01D92AE36B207E1F711E0C2ECE9
:10020000D1E000E006C022970109FE010BBF0E9469
:10021000BC09CE3BD10780E00807A9F7FAD60C94B9
:10022000C009EECE26E040E855E260E070E081EDE6
:1002300092E0E9C42F923F924F925F926F927F9229
:100240008F929F92AF92BF92CF92DF92EF92FF92E6
:100250000F931F93CF93DF93CDB7DEB760970FB6A1
:10026000F894DEBF0FBECDBF51D36EE184EA92E0B9
:1002700064D269837A838B839C836EE180E892E009
:100280005CD26D837E838F8398876EE18CE592E0EC
:1002900054D269877A878B879C876EE188E392E0E6
:1002A0004CD26D877E878F87988BC0900002D0904C
:1002B0000102E0900202F0900302A701960160E0C3
:1002C00070E080E89FE3AFD62B013C01E4E3F2E06D
:1002D00060817181882777FD8095982F3CD79B019D
:1002E000AC01C701B601C3D74B015C0169817A81BA
:1002F0008B819C8130D79B01AC01C301B201B7D780
:100300009B01AC01C501B4018FD6F2D669837A8313
:100310008B839C8389819A81E6E3F2E091838083D9
:1003200082E3282E82E0382EE0E3F2E060817181E2
:10033000882777FD8095982F0ED79B01AC01C701C8
:10034000B60195D74B015C016D817E818F819885C7
:1003500002D79B01AC01C301B20189D79B01AC015B
:10036000C501B40161D6C4D6F10171836083ECE2AA
:10037000F2E060817181882777FD8095982FEBD618
:100380009B01AC01C701B60172D74B015C016985C5
:100390007A858B859C85DFD69B01AC01C301B201B8
:1003A00066D79B01AC01C501B4013ED6A1D6EEE2F1
:1003B000F2E0718360839AE2A92E92E0B92E08E2FE
:1003C00012E0F80160817181882777FD8095982F70
:1003D000C2D69B01AC01C701B60149D76B017C01B4
:1003E0006D857E858F859889B6D69B01AC01C3014A
:1003F000B2013DD79B01AC01C701B60115D678D635
:10040000F501718360834AE050E069817A8181ED72
:1004100092E0E1D564E072E081ED92E03DD5F1013A
:10042000608171814AE050E081ED92E0D4D564E0D2
:1004300072E081ED92E030D5EEE2F2E06081718110
:100440004AE050E081ED92E0C6D564E072E081EDD3
:1004500092E022D5F501608171814AE050E081EDA2
:1004600092E0C0D5E6E3F2E080819181E4E3F2E03E
:1004700091838083F10180819181E0E3F2E09183B7
:100480008083EEE2F2E080819181ECE2F2E0918300
:100490008083F50180819181F8019183808360964A
:1004A0000FB6F894DEBF0FBECDBFDF91CF911F9185
:1004B0000F91FF90EF90DF90CF90BF90AF909F9003
:1004C0008F907F906F905F904F903F902F90089506
:1004D00042E064E084EA92E00FD046E064E080E825
:1004E00092E00AD048E064E08CE592E005D04AE072
:1004F00064E088E392E000C00F931F93CF93DF93F3
:10050000EC0181E090E09983888386E391E09F830A
:100510008E8300EE15E729E030E0088719872A87E7
:100520003B8700E21EE420E030E00C871D872E8729
:100530003F87663420F08FEF9FEF9983888346349E
:1005400020F08FEF9FEF99838883262F30E0F90109
:10055000EC51FF4FE491E88FF901E65DFE4F2491E5
:1005600030E0220F331FF901EC55FE4F6591749175
:100570007A8F698F26573E4FF901259134913C8F30
:100580002B8F842F90E0FC01EC51FF4FE491ED8F15
:10059000FC01E65DFE4F849190E0880F991FFC01FD
:1005A000EC55FE4F259134913F8F2E8FFC01E05981
:1005B000FE4F2591349139A328A386579E4FFC0105
:1005C000859194919BA38AA3F894E98DFA8D8081FB
:1005D000988D892B808378944FEF5FEF6FEF7FE0EA
:1005E0004A835B836C837D8391D1688B798B8A8B03
:1005F0009B8BDF91CF911F910F9108950F931F93C4
:10060000FC01F894A38DB48D9C91808D80958923F5
:100610008C93A68DB78D9C91858D809589238C9325
:10062000A2A1B3A19C91858D809589238C93A68DE1
:10063000B78D8C91958D892B8C93A68DB78D9C91C0
:10064000858D809589238C93A38DB48D8C91908D0D
:10065000892B8C937894A0A1B1A1958D8C9189233D
:100660004489558966897789008511852285338576
:10067000811106C0401751076207730708F440C094
:100680000417150726073707C0F1F894A2A1B3A1F4
:100690008C91958D892B8C93A68DB78D8C91958D92
:1006A000892B8C93A68DB78D9C91858D8095892300
:1006B0008C93A2A1B3A19C91858D809589238C9365
:1006C000A38DB48D9C91808D809589238C93789493
:1006D000A0A1B1A1958D8C91892344895589668902
:1006E00077890085118522853385882391F040170D
:1006F000510762077307A8F00CC08EEF9FEF1AC076
:100700004F5F5F4F6F4F7F4F448B558B668B778B5F
:10071000A5CF401751076207730778F781E090E093
:1007200009C04F5F5F4F6F4F7F4F448B558B668B78
:10073000778BD1CF1F910F910895CF92DF92EF92D7
:10074000FF920F931F93CF93DF931F92CDB7DEB726
:100750008C01FC01148A158A168A178A662341F0D7
:100760008081918197FF08C06FEF7FEFCB017AC046
:1007700060E070E0CB0176C0F12CC80169833EDFF8
:10078000698197FD5AC0F394F612F7CFBFD0F801F4
:10079000C088D188E288F3886C197D098E099F0989
:1007A000C484D584E684F784C616D706E806F9061D
:1007B00030F5C488D588E688F788628173818481A2
:1007C0009581C616D706E806F90629F0C61AD70A93
:1007D000E80AF90A03C0C12CD12C7601BAD42DEC59
:1007E0003CEC4CEC5DE343D583D4AB01662757FD6D
:1007F0006095762FC416D506E606F70618F1F801BF
:1008000084899589A689B789C280D380E480F580E0
:100810008C159D05AE05BF0520F482839383A483C8
:10082000B583F801C280D380E480F580BC01CD019E
:100830006C197D098E099F0915C06EEF7FEF8FEF50
:100840009FEF10C04FEF5FEF6FEF7FE0F801428343
:100850005383648375835AD0F801608B718B828BCC
:10086000938BCDCF0F90DF91CF911F910F91FF9080
:10087000EF90DF90CF9008951F920F920FB60F92D6
:1008800011242F933F938F939F93AF93BF938091A6
:10089000C9029091CA02A091CB02B091CC023091D2
:1008A000C80223E0230F2D3720F40196A11DB11DAE
:1008B00005C026E8230F0296A11DB11D2093C80292
:1008C0008093C9029093CA02A093CB02B093CC024A
:1008D0008091CD029091CE02A091CF02B091D00232
:1008E0000196A11DB11D8093CD029093CE02A093DD
:1008F000CF02B093D002BF91AF919F918F913F9162
:100900002F910F900FBE0F901F9018952FB7F8944E
:100910006091C9027091CA028091CB029091CC0281
:100920002FBF0895789484B5826084BD84B58160BA
:1009300084BD85B5826085BD85B5816085BDEEE6E7
:10094000F0E0808181608083E1E8F0E010828081C6
:1009500082608083808181608083E0E8F0E0808134
:1009600081608083E1EBF0E0808184608083E0EB54
:10097000F0E0808181608083E1E9F0E08081826045
:100980008083808181608083E0E9F0E08081816004
:100990008083E1EAF0E080818260808380818160F1
:1009A0008083E0EAF0E0808181608083E1E2F1E031
:1009B000808182608083808181608083E0E2F1E0D9
:1009C000808181608083EAE7F0E0808184608083B9
:1009D0008081826080838081816080838081806863
:1009E00080831092C1000895FC01818D228D90E0DA
:1009F000805C9F4F821B91098F7399270895FC019A
:100A0000918D828D981731F0828DE80FF11D858DC3
:100A100090E008958FEF9FEF0895FC01918D828DF6
:100A2000981761F0828DDF01A80FB11D5D968C9142
:100A3000928D9F5F9F73928F90E008958FEF9FEF4D
:100A4000089582EC96E0892B39F080E090E0892BC4
:100A500019F098D1811125C080E090E0892B41F0F8
:100A600080E090E0892B21F00E94000081111CC0E1
:100A700080E090E0892B41F080E090E0892B21F02C
:100A80000E940000811113C080E090E0892BA1F04A
:100A900080E090E0892B81F00E94000081110AC063
:100AA00008950E940000D8CF0E940000E1CF0E946C
:100AB0000000EACF0C9400000895FC01848DDF0152
:100AC000A80FB11DA35ABF4F2C91848D90E00196C1
:100AD0008F739927848FA689B7892C93A089B189B0
:100AE0008C9180648C93938D848D981306C00288BA
:100AF000F389E02D80818F7D80830895CF93DF93EC
:100B0000EC01888D8823C1F0EA89FB89808185FD0D
:100B100005C0A889B9898C9186FD0EC00FB607FC67
:100B2000F5CF808185FFF2CFA889B9898C9185FFA7
:100B3000EDCFCE01C2DFE8CFDF91CF910895CF9204
:100B4000DF92FF920F931F93CF93DF931F92CDB746
:100B5000DEB76C0181E0D60158968C9358975B966E
:100B60009C915B975C968C915C97981307C050960C
:100B7000ED91FC915197808185FD2DC0F601038D8B
:100B800010E00F5F1F4F0F731127F02EF601848DB9
:100B9000F81210C00FB607FCF9CFD6015096ED91B0
:100BA000FC915197808185FFF1CFC601698385DF74
:100BB0006981ECCF838DE80FF11DE35AFF4F60830D
:100BC000D6015B960C935B975296ED91FC915397EF
:100BD000808180620CC0D6015696ED91FC915797AA
:100BE00060835096ED91FC91519780818064808361
:100BF00081E090E00F90DF91CF911F910F91FF90D6
:100C0000DF90CF900895BF92CF92DF92EF92FF9244
:100C1000CF93DF93EC016A017B01B22EE889F98959
:100C200082E08083411581EE58076105710599F0D6
:100C300060E079E08DE390E0A70196017BD321503D
:100C40003109410951095695479537952795211541
:100C500080E1380790F0E889F989108260E874E84B
:100C60008EE190E0A701960165D321503109410939
:100C700051095695479537952795EC85FD85308325
:100C8000EE85FF852083188EEC89FD89B082EA8984
:100C9000FB89808180618083EA89FB89808188600B
:100CA0008083EA89FB89808180688083EA89FB8967
:100CB00080818F7D8083DF91CF91FF90EF90DF90D7
:100CC000CF90BF9008951F920F920FB60F921124EC
:100CD0000BB60F922F938F939F93EF93FF93E09117
:100CE000E102F091E2028081E091E702F091E802F6
:100CF00082FD12C090818091EA028F5F8F732091F4
:100D0000EB02821751F0E091EA02F0E0EF52FD4F62
:100D1000958F8093EA0201C08081FF91EF919F91AE
:100D20008F912F910F900BBE0F900FBE0F901F90C1
:100D300018951F920F920FB60F9211240BB60F92B7
:100D40002F933F934F935F936F937F938F939F93D3
:100D5000AF93BF93EF93FF9381ED92E0AEDEFF91EF
:100D6000EF91BF91AF919F918F917F916F915F9123
:100D70004F913F912F910F900BBE0F900FBE0F9090
:100D80001F90189581ED92E02FDE21E0892B09F468
:100D900020E0822F08951092D4021092D30288EEA0
:100DA00093E0A0E0B0E08093D5029093D602A093A8
:100DB000D702B093D8028AE092E09093D202809357
:100DC000D10285EC90E09093DE028093DD0284EC0A
:100DD00090E09093E0028093DF0280EC90E09093AB
:100DE000E2028093E10281EC90E09093E402809330
:100DF000E30282EC90E09093E6028093E50286ECB9
:100E000090E09093E8028093E7021092EA02109239
:100E1000EB021092EC021092ED020895CF92DF9255
:100E2000EF92FF920F931F93CF93DF937C016A01A0
:100E3000EB0100E010E00C151D0571F06991D70180
:100E4000ED91FC910190F081E02DC7011995892B5E
:100E500019F00F5F1F4FEFCFC801DF91CF911F91A6
:100E60000F91FF90EF90DF90CF900895611571057D
:100E700081F0DB010D900020E9F7AD0141505109EF
:100E8000461B570BDC01ED91FC910280F381E02DB4
:100E9000199480E090E00895E9CFDC01ED91FC9198
:100EA0000190F081E02D199466E172E0DFCF8F921E
:100EB0009F92AF92BF92DF92EF92FF920F931F9398
:100EC000CF93DF93CDB7DEB7A1970FB6F894DEBF0F
:100ED0000FBECDBF7C01F42FD52ECB0119A222303D
:100EE00008F42AE08E010F5D1F4F822E912CA12C59
:100EF000B12C6F2F7D2DA50194011CD2F22FD32E82
:100F0000CA01015011096A3014F4E0E301C0E7E3BB
:100F1000E60FD801EC93232B242B252B51F7B80196
:100F2000C701A4DFA1960FB6F894DEBF0FBECDBFF8
:100F3000DF91CF911F910F91FF90EF90DF90BF90C5
:100F4000AF909F908F900895CF92DF92EF92FF9293
:100F50000F931F93CF93DF93EC016A017B0121155F
:100F6000310579F4E881F9810190F081E02D642F59
:100F7000DF91CF911F910F91FF90EF90DF90CF9075
:100F800019942A303105D9F477FF18C06DE285DF56
:100F90008C0144275527BA014C195D096E097F0958
:100FA0002AE0CE0184DF800F911FDF91CF911F9146
:100FB0000F91FF90EF90DF90CF9008952AE0B70156
:100FC000A601CE01DF91CF911F910F91FF90EF907D
:100FD000DF90CF906CCF9A01AB01662757FD6095EB
:100FE000762FB2CF0F931F93CF93DF93EC019A012B
:100FF000AB01662757FD6095762FA6DF8C01CE01E9
:1010000053DF800F911FDF91CF911F910F910895B2
:10101000089588DCFDDF06D9C1E2D5E00BD9209721
:10102000E9F30FDDFBCF5058BB27AA270ED0E5C050
:10103000D6D030F0DBD020F031F49F3F11F41EF415
:10104000CBC00EF4E095E7FBC1C0E92FE7D080F3F9
:10105000BA17620773078407950718F071F49EF5B5
:10106000FFC00EF4E0950B2EBA2FA02D0B01B90195
:1010700090010C01CA01A0011124FF27591B99F00E
:10108000593F50F4503E68F11A16F040A22F232F1A
:10109000342F4427585FF3CF469537952795A7956A
:1010A000F0405395C9F77EF41F16BA0B620B730B11
:1010B000840BBAF09150A1F0FF0FBB1F661F771F82
:1010C000881FC2F70EC0BA0F621F731F841F48F437
:1010D000879577956795B795F7959E3F08F0B3CFBD
:1010E0009395880F08F09927EE0F979587950895A7
:1010F00004D06894B111B5C0089598D088F09F5776
:1011000090F0B92F9927B751A0F0D1F0660F771F53
:10111000881F991F1AF0BA95C9F712C0B13081F033
:101120009FD0B1E008959CC0672F782F8827B85FC3
:1011300039F0B93FCCF3869577956795B395D9F794
:101140003EF490958095709561957F4F8F4F9F4F9E
:101150000895E89409C097FB3EF4909580957095AA
:1011600061957F4F8F4F9F4F9923A9F0F92F96E9F3
:10117000BB279395F695879577956795B795F11168
:10118000F8CFFAF4BB0F11F460FF1BC06F5F7F4F05
:101190008F4F9F4F16C0882311F096E911C0772317
:1011A00021F09EE8872F762F05C0662371F096E820
:1011B000862F70E060E02AF09A95660F771F881FEF
:1011C000DAF7880F9695879597F9089597F99F67AD
:1011D00080E870E060E008959FEF80EC08950024BF
:1011E0000A941616170618060906089500240A948C
:1011F00012161306140605060895092E0394000C12
:1012000011F4882352F0BB0F40F4BF2B11F460FFA0
:1012100004C06F5F7F4F8F4F9F4F089557FD9058C9
:10122000440F551F59F05F3F71F04795880F97FBAA
:10123000991F61F09F3F79F0879508951216130664
:101240001406551FF2CF4695F1DF08C01616170693
:101250001806991FF1CF86957105610508940895C8
:10126000E894BB2766277727CB0197F908950BD021
:10127000C4CFB5DF28F0BADF18F0952309F0A6CF68
:10128000ABCF1124EECFCADFA0F3959FD1F3950F1A
:1012900050E0551F629FF001729FBB27F00DB11DFA
:1012A000639FAA27F00DB11DAA1F649F6627B00D8A
:1012B000A11D661F829F2227B00DA11D621F739F73
:1012C000B00DA11D621F839FA00D611D221F749F81
:1012D0003327A00D611D231F849F600D211D822FC8
:1012E000762F6A2F11249F5750408AF0E1F088230F
:1012F0004AF0EE0FFF1FBB1F661F771F881F91501C
:101300005040A9F79E3F510570F060CFAACF5F3FD4
:10131000ECF3983EDCF3869577956795B795F7954E
:10132000E7959F5FC1F7FE2B880F911D96958795D6
:1013300097F90895A1E21A2EAA1BBB1BFD010DC04F
:10134000AA1FBB1FEE1FFF1FA217B307E407F50775
:1013500020F0A21BB30BE40BF50B661F771F881F51
:10136000991F1A9469F760957095809590959B01E7
:10137000AC01BD01CF0108950790F691E02D1994BD
:04138000F894FFCF0F
:101384006666663F2000000000009F050E07F40417
:101394000D05FF047E050D0A006E616E00696E6620
:0813A400006F7666002E0000C8
:00000001FF
